:0B02D4001200001200CE1202DF80F8C2
:100287001202F08F21AD21E4FF1201C1E4FF120138
:04029700070202E870
:0600CE0012025BEF70322C
:1000D400FB7A007922120272EF04F50860247B0097
:1000E4007A007922F50DE4FF1200267B007A00796C
:1000F4004085080DE4FF12007A7B007A00794012F3
:0201040001E612
:0101060022D6
:04000300D2A07F0503
:10000700000000000000000000000000000000AE3B
:06001700071FEE70EB2252
:0F02AD00D2A1120003C2A17F05120007C2A02236
:0C02BC00C2A1120003D2A17F05020007BE
:02013A00AD070F
:10013C00C2AFE4FCC2A07F05120007ED30E704D289
:10014C00A18002C2A17F05120007D2A0ED25E0FD1F
:0D015C007F051200070CBC08DBC2A0D2AF6B
:010169002273
:10020B00C2AFE4FC120003ED25E0FD30A103430572
:10021B0001C2A07F051200070CBC08E8D2AFAF05E6
:01022B0022B0
:10029B00120003A2A1E433FDC2A07F05120007AF39
:0102AB00054D
:0102AC00222F
:10022C00C2A0EF24FF92A17F05120007120003C2A7
:08023C00A0D2A17F050200071A
:0802DF007F367EC7DEFEDFFC66
:0102E70022F4
:1001C1008F0E8D0F1202AD7FA012013A12029BAF6A
:1001D1000E12013A12029BAF0F12013A12029B1248
:0501E10002BC0202DF78
:020107008F1057
:100109001202AD7FA012013A12029BAF1012013AFE
:1001190012029B1202AD7FA112013A12029B120236
:100129000B8F117F0112022C1202BC1202DFAF11D8
:0101390022A3
:100026008F098B0A8A0B890CE50DD3940040441284
:1000360002AD7FA012013A12029BAF0912013A12D9
:10004600029BE50DD394004022AB0A050CE50CAAF1
:100056000B7002050B14F9120196FF12013A1202F7
:100066009B0509150DE509540770D71202BC12024B
:04007600DF80B52250
:10007A008F098B0A8A0B890C1202AD7FA012013AF2
:10008A0012029BAF0912013A12029B1202AD7FA122
:10009A0012013A12029BAF0D150DEF602412020BEA
:1000AA00AB0A050CE50CAA0B7002050B14F9EF124A
:1000BA0001AFE50D6004E4FF80027F0112022C808B
:0400CA00D50202BC9D
:0802E8002001FDD2018F9922D3
:0702F0002000FDD200AF99D0
:0102F70022E4
:1001E6008B098A0A890BAB09AA0AA90B1201966028
:1001F60013050BE50B7002050A14F9120196FF129E
:0502060002E880E22285
:10024400759850438E01538EFB75D7E675D6FF43E0
:070254008E10D2ACD2AF22E4
:0300230002016A6D
:10016A00C0E0C0D075D000C000C007309904C29961
:10017A00C20130980EAF12051274222FF8A699C246
:0C018A0098C200D007D000D0D0D0E032E6
:10025B00E51270037F0122E512B51305E4F512FFD9
:07026B00228512137F01221E
:030000000202C831
:0C02C800787FE4F6D8FD75815D0202D459
:10019600BB010689828A83E0225002E722BBFE0267
:0901A600E32289828A83E493229A
:1001AF00BB010689828A83F0225002F722BBFE012F
:0201BF00F32229
:10027200E4FFFE120196600C0FEF70010E09E970A7
:05028200F20A80EF22EA
:00000001FF
