:100103001E210000000000000000000000000000AD
:1001130000000000000000000000000000000000DC
:1001520012000012013BEF70FAFB7A0079211200C3
:03016200DE80F04C
:080165002001FDD2018F992257
:07016D002000FDD200AF9954
:010174002268
:1000DE008B088A09890AAB08AA09A90A12000360CB
:1000EE0013050AE50A7002050914F9120003FF123E
:0500FE00016580E22213
:10012400759850438E01538EFB75D7E675D6FF4301
:070134008E10D2ACD2AF2205
:030023000200B226
:1000B200C0E0C0D075D000C000C007309904C2991A
:1000C200C20130980EAF0B050B74212FF8A699C20E
:0C00D20098C200D007D000D0D0D0E0329F
:10013B00E50B70037F0122E50BB50C05E4F50BFF16
:07014B0022850B0C7F01224D
:03000000020026D5
:0C002600787FE4F6D8FD75813E02006D85
:10000300BB010689828A83E0225002E722BBFE02FB
:09001300E32289828A83E493222E
:10003200020152E493A3F8E493A34003F68001F291
:1000420008DFF48029E493A3F85407240CC8C333CF
:10005200C4540F4420C8834004F456800146F6DF9E
:10006200E4800B0102040810204080900103E47E2A
:10007200019360BCA3FF543F30E509541FFEE49393
:10008200A360010ECF54C025E060A840B8E493A35A
:10009200FAE493A3F8E493A3C8C582C8CAC583CA85
:1000A200F0A3C8C582C8CAC583CADFE9DEE780BE3D
:0101230000DB
:00000001FF
