:02039000C100AA
:1003A600D291538EBF53890F438910C28EC2AB229E
:10032F00E4F58DF58BD28E309107E58DC394464061
:10033F00F6C28EAF8DEFFEAD8B7C00E42DFFEC3E51
:02034F00FE228C
:10035100E4F58DF58BD28E209107E58DC39446404F
:10036100F6C28EAF8DEFFEAD8B7C00E42DFFEC3E2F
:02037100FE226A
:1001CA00120351C3EF9434EE94214079D3EF941C77
:1001DA00EE9425507012032FC3EF94A0EE940F40B3
:1001EA0064D3EF9488EE9413505BE4FBE4FA1203B1
:1001FA0051C3EF9454EE9401404BD3EF940CEE9418
:10020A0003504212032FD3EF9454EE9401400EEFA1
:10021A00940CEE94035006E9C313F98018D3EF94B3
:10022A00B4EE9405401FEF946CEE94075017E9C39F
:10023A0013F94301800ABA08B574132BF8A6010B07
:05024A00BB04A9D20075
:01024F00228C
:1003B600C0F9A4B0999282F880908883C6A1868EEF
:100392000809FFFFFFFFFFFFFFFF0111000112002D
:0303A2000108004F
:1002F500D2AF7F017E001202501203A62091031295
:1003050001CA3000F7C200E513C4540F9003B69339
:10031500F50EE513540F93F50DE515C4540F93F53C
:0A0325000AE515540F93F50980D284
:10025000751A4075194275180F751700E4FCFDAB4F
:100260001AAA19A918A81712000EE47BE87A03F954
:10027000F81200998F1A8E198D188C17C3E4951AED
:10028000F51AE49519F51974019518F518E4951700
:10029000F517AF1AAE19AD18FC780812012B8F11A3
:1002A000851A125389F043890185118C85128AD2EF
:0302B000A9D28C44
:0102B3002228
:1002B400E5A0541F44E0F5A07580FF53A01FE5A0FE
:1002C400541F44C0F5A0AF08A8077480088002C377
:1002D40013D8FCF58053A01FE5A0541F44E0F5A0FB
:1002E40074092508F8E6F58053A01F05085308078C
:0102F40022E7
:03000B000203737A
:10037300C0E0C0D075D000C000C00785118C8512C5
:0D0383008A1202B4D007D000D0D0D0E032F2
:0300000002013EBC
:0C013E00787FE4F6D8FD75812002018571
:10000E00E88FF0A4CC8BF0A42CFCE98EF0A42CFC91
:10001E008AF0EDA42CFCEA8EF0A4CDA8F08BF0A40F
:10002E002DCC3825F0FDE98FF0A42CCD35F0FCEB6E
:10003E008EF0A4FEA9F0EB8FF0A4CFC5F02ECD3933
:0F004E00FEE43CFCEAA42DCE35F0FDE43CFC22A0
:10005D0075F008758200EF2FFFEE33FECD33CDCC5A
:10006D0033CCC58233C5829BED9AEC99E5829840DD
:10007D000CF582EE9BFEED9AFDEC99FC0FD5F0D6BA
:10008D00E4CEFBE4CDFAE4CCF9A88222B800C1B9E4
:10009D000059BA002DEC8BF084CFCECDFCE5F0CB22
:1000AD00F97818EF2FFFEE33FEED33FDEC33FCEB5B
:1000BD0033FB10D703994004EB99FB0FD8E5E4F916
:1000CD00FA227818EF2FFFEE33FEED33FDEC33FC03
:1000DD00C933C910D7059BE99A4007EC9BFCE99AF7
:1000ED00F90FD8E0E4C9FAE4CCFB2275F010EF2F3C
:1000FD00FFEE33FEED33FDCC33CCC833C810D7073C
:10010D009BEC9AE899400AED9BFDEC9AFCE899F876
:0E011D000FD5F0DAE4CDFBE4CCFAE4C8F92209
:10012B00E8600FECC313FCED13FDEE13FEEF13FFB2
:03013B00D8F122D6
:10014A000202F5E493A3F8E493A34003F68001F2D4
:10015A0008DFF48029E493A3F85407240CC8C333B6
:10016A00C4540F4420C8834004F456800146F6DF85
:10017A00E4800B0102040810204080900390E47E82
:10018A00019360BCA3FF543F30E509541FFEE4937A
:10019A00A360010ECF54C025E060A840B8E493A341
:1001AA00FAE493A3F8E493A3C8C582C8CAC583CA6C
:1001BA00F0A3C8C582C8CAC583CADFE9DEE780BE24
:0103A5000057
:00000001FF
