:03062100012100B4
:1005EC007F02120445E521B401FBE4F52112051448
:1005FC00E48F0DF50CF50BF50A7F0212032180E553
:03001B0002056774
:10056700C0E0C0F0C083C082C0D075D000C000C05A
:0D05770001C002C003C004C005C006C007DB
:100584000508E508D394FA400675080075210112A0
:0205940004AEB3
:10059600D007D006D005D004D003D002D001D000B9
:0B05A600D0D0D082D083D0F0D0E03263
:10060C007F08AE071FEE600CD290000000C2900075
:04061C00000080EE6C
:0106200022B7
:10051400E4F5D9F5E9F5F9C2DFC2DE12060CD2DE44
:10052400309107E5F9C3941740F6C2DE20912BD22F
:1005340091AFF9EFFEADE97C00E42DFFEC3EFEAD9A
:1005440007FCE41201297B967A43798B783C1200EC
:100554001E1201628E098F0A8006750900750A63EE
:02056400AF0ADC
:010566002272
:10000300C0F9A4B0999282F880908883C6A1868EA5
:0800130089C7C88CC1BF7FFF43
:0D06240008191717171717171717011800D7
:1005B100E5A0541F44E0F5A07580FF53A01FE5A0FE
:1005C100541F44C0F5A0EF14FFF87401088002C362
:1005D10033D8FCF58053A01FE5A0541F44E0F5A0DB
:0B05E100ED90000393F58053A01F2253
:020321008F0942
:10032300E4F50FF50EE47B0AFAF9F8AF0DAE0CAD68
:100333000BAC0A12026EAF037410250EF8A607AFBA
:100343000DAE0CAD0BAC0AE47B0AFAF9F812026E9F
:100353008F0D8E0C8D0B8C0A050EE50EB408C67539
:100363000E077410250EF8E67028E50E640260058A
:10037300E50EB401097419250EF8E4F68009741921
:10038300250EF87617050F150EC3E50E64809480CD
:1003930050D0C3E50E64809480401A7410250EF883
:1003A300E6FFC37406950FC3950E25092418F8A616
:0503B30007150E80DDBE
:0103B8002222
:1004AE000518E51814B40800505B9004C675F003E7
:1004BE00A4C58325F0C583730204DE0204E402049E
:1004CE00EA0204F00204F60204FC02050202050927
:1004DE00AD197F018022AD1A7F02801CAD1B7F03F8
:1004EE008016AD1C7F048010AD1D7F05800AAD1EE9
:1004FE007F068004AD1F7F070205B1AD207F081275
:05050E0005B1E4F51841
:0105130022C5
:02044500AB0703
:10044700538EBF53890F750C40750B42750A0F7594
:100457000900AF03E4FCFDFEAB0CAA0BA90AA8092F
:100467001201E3E47BE87A03F9F812026E8F0C8E2F
:100477000B8D0A8C09C3E4950CF50CE4950BF50B71
:100487007401950AF50AE49509F509AF0CAE0BADB1
:100497000AFC780812030E8F8D850C8BC28FD28EC3
:0604A700D2ABD2AFC2BBD4
:0104AD00222C
:10001E00EC4D6011E8497017ED33EC3304600DE4DC
:10002E00FCFFFEFD22E933E8330470F80201CE1224
:10003E00019958046009E4CC248150062850090225
:10004E0001D82840030201D5C0E0EB4A7044B980C4
:10005E0006D0E0FB0201C4EF4E701CBD8008EBFF22
:10006E00EAFEE9FD80EBE98DF0A4FEE5F002010762
:10007E00E9CDF9EAFEEBFFEF89F0A4FCE5F0CE89BD
:10008E00F0A42EFFE435F0CD89F0A42DFEE435F07A
:10009E008067EF4E7005BD80D780C3EF8BF0A4ACA8
:1000AE00F0EE8BF0A42CFCE435F0F8EF8AF0A42CE3
:1000BE00E5F038FCE433CB8DF0A42CFCE5F03BF8F6
:1000CE00EE8AF0A42CFCE5F038F8E433CF89F0A4E6
:1000DE002CFCE5F038CF3400CE89F0A42FFFE5F0EC
:1000EE003EFEE433C98DF0A42EFEE5F039CD8AF044
:1000FE00A42FFFE5F03EFEE43DFD33D0E0FB5007BC
:10010E000BBB000F0201D8EC2CFCEF33FFEE33FEDD
:06011E00ED33FD0201B00B
:1001240075F020800E75F010800575F0087D007E56
:10013400007F003392D530D503120300EC33401016
:10014400EF33FFEE33FEED33FDEC33FCD5F0ED225F
:0E015400E5F0247EA2D513CC92E7CDCEFF229B
:10016200EDD2E7CD33EC3392D524814006E4FFFE95
:10017200FDFC22FCE4CFCECDCC24E0501174FF80F4
:10018200EDC3CC13CCCD13CDCE13CECF13CF047091
:07019200F030D5DE0203008E
:10019900E9D2E7C933E833F892D5EDD2E7CD33ECAC
:0701A90033FC5002B2D52225
:1001B000EC30E7100FBF000C0EBE00080DBD0004B0
:1001C0000BEB6014A2D5EB13FCED92E7FD2274FF5C
:1001D000FCFDFEFF22E480F8A2D574FF13FC7D80B5
:0301E000E480EFC9
:030000000203B93F
:0C03B900787FE4F6D8FD75812102040075
:1001E300E88FF0A4CC8BF0A42CFCE98EF0A42CFCBB
:1001F3008AF0EDA42CFCEA8EF0A4CDA8F08BF0A439
:100203002DCC3825F0FDE98FF0A42CCD35F0FCEB97
:100213008EF0A4FEA9F0EB8FF0A4CFC5F02ECD395C
:0F022300FEE43CFCEAA42DCE35F0FDE43CFC22C9
:1002320075F008758200EF2FFFEE33FECD33CDCC83
:1002420033CCC58233C5829BED9AEC99E582984006
:100252000CF582EE9BFEED9AFDEC99FC0FD5F0D6E3
:10026200E4CEFBE4CDFAE4CCF9A88222B800C1B90D
:100272000059BA002DEC8BF084CFCECDFCE5F0CB4B
:10028200F97818EF2FFFEE33FEED33FDEC33FCEB84
:1002920033FB10D703994004EB99FB0FD8E5E4F93F
:1002A200FA227818EF2FFFEE33FEED33FDEC33FC2C
:1002B200C933C910D7059BE99A4007EC9BFCE99A20
:1002C200F90FD8E0E4C9FAE4CCFB2275F010EF2F65
:1002D200FFEE33FEED33FDCC33CCC833C810D70765
:1002E2009BEC9AE899400AED9BFDEC9AFCE899F8A0
:0E02F2000FD5F0DAE4CDFBE4CCFAE4C8F92233
:0E030000C3E49FFFE49EFEE49DFDE49CFC220E
:10030E00E8600FECC313FCED13FDEE13FEEF13FFCD
:03031E00D8F122F1
:1003C5000205ECE493A3F8E493A34003F68001F25D
:1003D50008DFF48029E493A3F85407240CC8C33339
:1003E500C4540F4420C8834004F456800146F6DF08
:1003F500E4800B0102040810204080900621E47E71
:10040500019360BCA3FF543F30E509541FFEE493FC
:10041500A360010ECF54C025E060A840B8E493A3C3
:10042500FAE493A3F8E493A3C8C582C8CAC583CAEE
:10043500F0A3C8C582C8CAC583CADFE9DEE780BEA6
:0106310000C8
:00000001FF
