:0400030002240000D3
:0A044A001204287F021202E880FE6F
:03001B000202627C
:10026200C0E0C0F0C083C082C0D075D000C000C062
:0D02720001C002C003C004C005C006C007E3
:10027F00E5254524700CD28C0525E525703D052418
:10028F008039C3E52594F4E5249401500A0525E54A
:10029F0025702805248024752400752500C28CAF95
:1002AF008CEFFEAD8AEDFFE48F0C8E0BF50AF5098E
:0E02BF007F011201DA758C00758A001203515E
:1002CD00D007D006D005D004D003D002D001D00085
:0B02DD00D0D0D082D083D0F0D0E0322F
:0202E800AB0762
:1002EA00538EBF53890F751A4075194275180F75C9
:1002FA001700AF03E4FCFDFEAB1AAA19A918A81748
:10030A0012001EE47BE87A03F9F81200A98F1A8E0C
:10031A00198D188C17C3E4951AF51AE49519F5196D
:10032A0074019518F518E49517F517AF1AAE19ADBB
:10033A0018FC780812013B8F8D851A8BC28FD28EDA
:06034A00D2ABD2AFC2BB32
:01035000228A
:10042800438E80438905E4F58AF58CC28DC28CC25F
:02043800A922F7
:10043A00C0F9A4B0999282F880908883C6A1868E6A
:0D000700081CFFFFFFFFFFFFFFFF011B00B4
:1003B700E5A0541F44E0F5A07580FF53A01FE5A0FA
:1003C700541F44C0F5A0EF14FFF87401088002C35E
:1003D70033D8FCF58053A01FE5A0541F44E0F5A0D7
:0B03E700ED90043A93F58053A01F2214
:1003F200E5A0541F44E0F5A07580FF53A01FE5A0BF
:10040200541F44C0F5A0EF14FFF87401088002C322
:1004120033D8FCF58053A01FE5A0541F44E0F5A09B
:060422008D8053A01F2293
:0201DA008F088C
:1001DC00E4F50EF50DE47B0AFAF9F8AF0CAE0BADB5
:1001EC000AAC091200A9AF03740F250DF8A607AFCE
:1001FC000CAE0BAD0AAC09E47B0AFAF9F81200A9B3
:10020C008F0C8E0B8D0A8C09050DE50DB408C67587
:10021C000D07740F250DF8E67014741C250DF87677
:10022C00FF050E150DC3E50D6480948050E4C3E505
:10023C000D64809480401E740F250DF8E690043AEE
:10024C0093FFC37406950EC3950D2508241CF8A6C0
:05025C0007150D80D91B
:01026100227A
:10035100051BE51B14B40800505B90036975F0039D
:10036100A4C58325F0C583730203810203870203B9
:100371008D02039302039902039F0203A50203ACBA
:10038100AD1C7F018022AD1D7F02801CAD1E7F034D
:100391008016AD1F7F048010AD207F05800AAD213E
:1003A1007F068004AD227F070203F2AD237F08128E
:0503B10003F2E4F51B5E
:0103B6002224
:0300000002014EAC
:0C014E00787FE4F6D8FD7581250201954C
:10001E00E88FF0A4CC8BF0A42CFCE98EF0A42CFC81
:10002E008AF0EDA42CFCEA8EF0A4CDA8F08BF0A4FF
:10003E002DCC3825F0FDE98FF0A42CCD35F0FCEB5E
:10004E008EF0A4FEA9F0EB8FF0A4CFC5F02ECD3923
:0F005E00FEE43CFCEAA42DCE35F0FDE43CFC2290
:10006D0075F008758200EF2FFFEE33FECD33CDCC4A
:10007D0033CCC58233C5829BED9AEC99E5829840CD
:10008D000CF582EE9BFEED9AFDEC99FC0FD5F0D6AA
:10009D00E4CEFBE4CDFAE4CCF9A88222B800C1B9D4
:1000AD000059BA002DEC8BF084CFCECDFCE5F0CB12
:1000BD00F97818EF2FFFEE33FEED33FDEC33FCEB4B
:1000CD0033FB10D703994004EB99FB0FD8E5E4F906
:1000DD00FA227818EF2FFFEE33FEED33FDEC33FCF3
:1000ED00C933C910D7059BE99A4007EC9BFCE99AE7
:1000FD00F90FD8E0E4C9FAE4CCFB2275F010EF2F2C
:10010D00FFEE33FEED33FDCC33CCC833C810D7072B
:10011D009BEC9AE899400AED9BFDEC9AFCE899F866
:0E012D000FD5F0DAE4CDFBE4CCFAE4C8F922F9
:10013B00E8600FECC313FCED13FDEE13FEEF13FFA2
:03014B00D8F122C6
:10015A0002044AE493A3F8E493A34003F68001F26D
:10016A0008DFF48029E493A3F85407240CC8C333A6
:10017A00C4540F4420C8834004F456800146F6DF75
:10018A00E4800B0102040810204080900003E47E02
:10019A00019360BCA3FF543F30E509541FFEE4936A
:1001AA00A360010ECF54C025E060A840B8E493A331
:1001BA00FAE493A3F8E493A3C8C582C8CAC583CA5C
:1001CA00F0A3C8C582C8CAC583CADFE9DEE780BE14
:0100140000EB
:00000001FF
