:0D035C0008090C1925323E4B5763010800BB
:0D0383001202D27F0212022212000380FE3D
:03001B0002028B53
:10028B00C0E0C0F0C083C082C0D075D000C000C039
:0D029B0001C002C003C004C005C006C007BA
:0F02A8000508E508D394F9400675080012030C09
:1002B700D007D006D005D004D003D002D001D0009B
:0B02C700D0D0D082D083D0F0D0E03245
:0300630002001E7A
:10001E00C0E0C0F0C083C082C0D075D000C000C0A8
:10002E0001C002C003C004C005C006C00774092584
:10003E0017F8E6FD7F6412033CD007D006D005D03A
:10004E0004D003D002D001D000D0D0D082D083D043
:04005E00F0D0E032CC
:0B036900011601011700C10001150082
:0E037500E5A0541F4480F5A08F8053A01F22E6
:10030C00E5A0541F4480F5A0E516F4F58020000FFD
:10031C00E51625E0F5160517B48011D200800DE521
:0F032C0016C313F5161517B40102C20053A01F14
:01033B00229F
:02033C00AE070A
:10033E00E515B505057FFF120375E515C39E500340
:0D034E00051522E516F4FF120375E4F51500
:01035B00227F
:1002D200E5A0541F4480F5A07580FF53A01FE5A040
:1002E200541F44A0F5A0C286C28453A01FE5A054A7
:1002F2001F44C0F5A07580FF53A01FE5A0541F4402
:0A030200E0F5A07580FF53A01F2254
:02022200AB0728
:10022400538EBF53890F75140075131075120E7514
:100234001100AF03E4FCFDFEAB14AA13A912A8112C
:10024400120066E47BE87A03F9F81200F18F148E49
:10025400138D128C11C3E49514F514E49513F5135E
:1002640074019512F512E49511F511AF14AE13ADA6
:1002740012FC78081201838F8D85148BC28FD28E65
:06028400D2ABD2AFC2BBF9
:01028A002251
:10000300438E0475D78875D6FF438E1043AF04D251
:02001300AF221A
:0300000002019664
:0C019600787FE4F6D8FD7581200201DDC1
:10006600E88FF0A4CC8BF0A42CFCE98EF0A42CFC39
:100076008AF0EDA42CFCEA8EF0A4CDA8F08BF0A4B7
:100086002DCC3825F0FDE98FF0A42CCD35F0FCEB16
:100096008EF0A4FEA9F0EB8FF0A4CFC5F02ECD39DB
:0F00A600FEE43CFCEAA42DCE35F0FDE43CFC2248
:1000B50075F008758200EF2FFFEE33FECD33CDCC02
:1000C50033CCC58233C5829BED9AEC99E582984085
:1000D5000CF582EE9BFEED9AFDEC99FC0FD5F0D662
:1000E500E4CEFBE4CDFAE4CCF9A88222B800C1B98C
:1000F5000059BA002DEC8BF084CFCECDFCE5F0CBCA
:10010500F97818EF2FFFEE33FEED33FDEC33FCEB02
:1001150033FB10D703994004EB99FB0FD8E5E4F9BD
:10012500FA227818EF2FFFEE33FEED33FDEC33FCAA
:10013500C933C910D7059BE99A4007EC9BFCE99A9E
:10014500F90FD8E0E4C9FAE4CCFB2275F010EF2FE3
:10015500FFEE33FEED33FDCC33CCC833C810D707E3
:100165009BEC9AE899400AED9BFDEC9AFCE899F81E
:0E0175000FD5F0DAE4CDFBE4CCFAE4C8F922B1
:10018300E8600FECC313FCED13FDEE13FEEF13FF5A
:03019300D8F1227E
:1001A200020383E493A3F8E493A34003F68001F2ED
:1001B20008DFF48029E493A3F85407240CC8C3335E
:1001C200C4540F4420C8834004F456800146F6DF2D
:1001D200E4800B010204081020408090035CE47E5E
:1001E200019360BCA3FF543F30E509541FFEE49322
:1001F200A360010ECF54C025E060A840B8E493A3E9
:10020200FAE493A3F8E493A3C8C582C8CAC583CA13
:10021200F0A3C8C582C8CAC583CADFE9DEE780BECB
:010374000088
:00000001FF
