:1005B700085600000000000000000442FFFFFFFF94
:1005C700044601010101044A01010101084E03E843
:0605D70003E803E803E85D
:1003B900EF1460211460381460482403705DE5620D
:1003C9002401F562E43561F561E43560F560E435F1
:1003D9005FF55F8046E56224FFF562E56134FFF56C
:1003E90061E56034FFF560E55F34FFF55F802CAFB0
:1003F90062AE61AD60AC5FE47B02FAF9F812001EEF
:100409008011AF62AE61AD60AC5FE47B02FAF9F8CE
:100419001200A98F628E618D608C5F85623785615C
:0E04290036856035855F347D057F0302033123
:10016400E54225E0FFA2B3E4334FF542E54325E041
:10017400FFA2B2E4334FF543E54425E0FFA2B1E426
:10018400334FF544E54525E0FFA2B0E4334FF54590
:10019400E4F52174422521F8E6B4FF12744A2521BE
:1001A400F87601E52125E02456F8E4F608F67442D1
:1001B4002521F8E67017744A2521F8E4F6E521258F
:1001C400E02456F808740226F618E436F60521E50C
:1001D40021B404BFE4F521744A2521F8E6FF7446EE
:1001E4002521F8E66F6016EF7005AF211203B9748C
:1001F4004A2521F8E6FF74462521F8A607E52125BE
:10020400E0244EF8E6FE08E6FFE4FCFD7B607AEAB3
:10021400F9F8D312013B40067B01C00380047B0044
:10022400C003E52125E02456F8E6FE08E6FFE4FCD9
:10023400FD7B607AEAF9F8D312013B40047F018028
:10024400027F00D0E04F6034E52125E0244EF8E63B
:10025400FE08E6FFE52125E02456F8E6FC08E6D38F
:100264009FEC9E402FAF211203B9E52125E0244ED7
:10027400F808746426F618E436F68018E52125E0BB
:100284002456F87603087684E52125E0244EF87692
:10029400030876E80521E521C3940450030201DB39
:0102A4002237
:1006B700E5A0541F44A0F5A0D286C28453A01F22F0
:1006C700E5A0541F44A0F5A0D284C28653A01F22E0
:0505DD00C100016301F3
:0E06D700E5A0541F4480F5A08F8053A01F2281
:10066E00E5A0541F4480F5A0E563F4F58020000D4D
:10067E00E56325E0F563B4800FD200800BE563C31C
:0B068E0013F563B40102C20053A01F6B
:01069900223E
:0905E200045F00000072015E00DC
:10069A00120634856237856136856035855F347D1B
:0D06AA00057F031203317F0212043780FE2A
:03001B0002056A71
:10056A00C0E0C0F0C083C082C0D075D000C000C057
:0D057A0001C002C003C004C005C006C007D8
:10058700055EE55ED394F94006755E0012066E12AD
:0505970004A012016444
:10059C00D007D006D005D004D003D002D001D000B3
:0B05AC00D0D0D082D083D0F0D0E0325D
:10063400E5A0541F4480F5A07580FF53A01FE5A0DA
:10064400541F44A0F5A0C286C28453A01FE5A05441
:100654001F44C0F5A07580FF53A01FE5A0541F449C
:0A066400E0F5A07580FF53A01F22EF
:10000300C0F9A4B0999282F880908883C6A1868EA5
:0800130089C7C88CC1BF7FFF43
:0D05EB000818171717171717171701170013
:1005F900E5A0541F44E0F5A07580FF53A01FE5A0B6
:10060900541F44C0F5A0EF14FFF87401088002C319
:1006190033D8FCF58053A01FE5A0541F44E0F5A092
:0B062900ED90000393F58053A01F220A
:040506008F088D09C4
:10050A00E4F50EE47B0AFAF9F8AF0DAE0CAD0BACCC
:10051A000A1200A9AF03740F250EF8A607AF0DAE95
:10052A000CAD0BAC0AE47B0AFAF9F81200A98F0D9C
:10053A008E0C8D0B8C0A050EE50EB408C6E5081460
:10054A00FFC3EF648094885016740E2509F8E6FEFE
:0F055A0074182FF8A6061509E50960030F80E253
:01056900226F
:040331008F328D3347
:10033500E4F539F538E47B0AFAF9F8AF37AE36ADAE
:1003450035AC341200A9AF03743A2538F8A607AFC7
:1003550037AE36AD35AC34E47B0AFAF9F81200A9AC
:100365008F378E368D358C340538E538B408C6E5BB
:100375003314F538C3E538648094804017743A2502
:1003850038F8E6700FE53225392417F87617053960
:10039500153880E0C3E538648094804016743A25AA
:1003A50038F8E6FFE53225392417F8A6070539158B
:0303B5003880E1AC
:0103B8002222
:1004A0000517E51714B40800505B9004B875F00305
:1004B000A4C58325F0C583730204D00204D60204C8
:1004C000DC0204E20204E80204EE0204F40204FB8B
:1004D000AD187F018022AD197F02801CAD1A7F0309
:1004E0008016AD1B7F048010AD1C7F05800AAD1DFA
:1004F0007F068004AD1E7F070205F9AD1F7F08123D
:0505000005F9E4F51708
:0105050022D3
:02043700AB0711
:10043900538EBF53890F75354075344275330F7527
:100449003200AF03E4FCFDFEAB35AA34A933A83270
:1004590012001EE47BE87A03F9F81200A98F358EA1
:10046900348D338C32C3E49535F535E49534F53460
:1004790074019533F533E49532F532AF35AE34ADC9
:1004890033FC78081201518F8D85358BC28FD28E3E
:06049900D2ABD2AFC2BBE2
:01049F00223A
:030000000202A554
:0C02A500787FE4F6D8FD7581630202EC5E
:10001E00E88FF0A4CC8BF0A42CFCE98EF0A42CFC81
:10002E008AF0EDA42CFCEA8EF0A4CDA8F08BF0A4FF
:10003E002DCC3825F0FDE98FF0A42CCD35F0FCEB5E
:10004E008EF0A4FEA9F0EB8FF0A4CFC5F02ECD3923
:0F005E00FEE43CFCEAA42DCE35F0FDE43CFC2290
:10006D0075F008758200EF2FFFEE33FECD33CDCC4A
:10007D0033CCC58233C5829BED9AEC99E5829840CD
:10008D000CF582EE9BFEED9AFDEC99FC0FD5F0D6AA
:10009D00E4CEFBE4CDFAE4CCF9A88222B800C1B9D4
:1000AD000059BA002DEC8BF084CFCECDFCE5F0CB12
:1000BD00F97818EF2FFFEE33FEED33FDEC33FCEB4B
:1000CD0033FB10D703994004EB99FB0FD8E5E4F906
:1000DD00FA227818EF2FFFEE33FEED33FDEC33FCF3
:1000ED00C933C910D7059BE99A4007EC9BFCE99AE7
:1000FD00F90FD8E0E4C9FAE4CCFB2275F010EF2F2C
:10010D00FFEE33FEED33FDCC33CCC833C810D7072B
:10011D009BEC9AE899400AED9BFDEC9AFCE899F866
:0E012D000FD5F0DAE4CDFBE4CCFAE4C8F922F9
:10013B00EB9FF5F0EA9E42F0E99D42F0EC6480C83B
:06014B0064809845F022DB
:10015100E8600FECC313FCED13FDEE13FEEF13FF8C
:03016100D8F122B0
:1002B10002069AE493A3F8E493A34003F68001F2C3
:1002C10008DFF48029E493A3F85407240CC8C3334E
:1002D100C4540F4420C8834004F456800146F6DF1D
:1002E100E4800B01020408102040809005B7E47EF1
:1002F100019360BCA3FF543F30E509541FFEE49312
:10030100A360010ECF54C025E060A840B8E493A3D8
:10031100FAE493A3F8E493A3C8C582C8CAC583CA03
:10032100F0A3C8C582C8CAC583CADFE9DEE780BEBB
:0105F8000002
:00000001FF
