:10031200C0F9A4B0999282F880908883C6A1868E93
:03001300010C00DD
:0A0330001202C87F021201DA80FEFB
:1002C800E5A0541F4480F5A07580FF53A01FE5A04A
:1002D800541F44A0F5A0C286C28453A01FE5A054B1
:1002E8001F44C0F5A07580FF53A01FE5A0541F440C
:0A02F800E0F5A07580FF53A01F225F
:0E032200E5A0541F4480F5A08F8053A01F2239
:10000300E5A0541F44A0F5A0D286C28453A01F22AA
:10030200E5A0541F44A0F5A0D284C28653A01F22A8
:10028D00E5A0541F44E0F5A07580FF53A01FE5A025
:10029D00541F44C0F5A0EF14FFF87401088002C389
:1002AD0033D8FCF58053A01FE5A0541F44E0F5A002
:0B02BD00ED90031293F58053A01F2268
:1001DA00750B40750A4275090F750800E4FCFDFEAF
:1001EA00AB0BAA0AA909A80812001EE47BE87A0345
:1001FA00F9F81200A98F0B8E0A8D098C08C3E495B1
:10020A000BF50BE4950AF50A74019509F509E495CD
:10021A0008F508AF0BAE0AAD09FC780812013B8F4E
:10022A000D850B0E538EBF53890F850D8D850E8B51
:0A023A00C28FD28ED2ABD2AFC2BB8E
:010244002297
:03001B0002024599
:10024500C0E0C083C082C0D075D000C000C005C06A
:0102550007A1
:10025600050CE50C24FE600D146013240270197D54
:10026600017F0180047D027F0212028D800A7D03D8
:080276007F0312028D750C00DC
:0F027E00D007D005D000D0D0D082D083D0E032CE
:0300000002014EAC
:0C014E00787FE4F6D8FD75810E02019563
:10001E00E88FF0A4CC8BF0A42CFCE98EF0A42CFC81
:10002E008AF0EDA42CFCEA8EF0A4CDA8F08BF0A4FF
:10003E002DCC3825F0FDE98FF0A42CCD35F0FCEB5E
:10004E008EF0A4FEA9F0EB8FF0A4CFC5F02ECD3923
:0F005E00FEE43CFCEAA42DCE35F0FDE43CFC2290
:10006D0075F008758200EF2FFFEE33FECD33CDCC4A
:10007D0033CCC58233C5829BED9AEC99E5829840CD
:10008D000CF582EE9BFEED9AFDEC99FC0FD5F0D6AA
:10009D00E4CEFBE4CDFAE4CCF9A88222B800C1B9D4
:1000AD000059BA002DEC8BF084CFCECDFCE5F0CB12
:1000BD00F97818EF2FFFEE33FEED33FDEC33FCEB4B
:1000CD0033FB10D703994004EB99FB0FD8E5E4F906
:1000DD00FA227818EF2FFFEE33FEED33FDEC33FCF3
:1000ED00C933C910D7059BE99A4007EC9BFCE99AE7
:1000FD00F90FD8E0E4C9FAE4CCFB2275F010EF2F2C
:10010D00FFEE33FEED33FDCC33CCC833C810D7072B
:10011D009BEC9AE899400AED9BFDEC9AFCE899F866
:0E012D000FD5F0DAE4CDFBE4CCFAE4C8F922F9
:10013B00E8600FECC313FCED13FDEE13FEEF13FFA2
:03014B00D8F122C6
:10015A00020330E493A3F8E493A34003F68001F288
:10016A0008DFF48029E493A3F85407240CC8C333A6
:10017A00C4540F4420C8834004F456800146F6DF75
:10018A00E4800B0102040810204080900013E47EF2
:10019A00019360BCA3FF543F30E509541FFEE4936A
:1001AA00A360010ECF54C025E060A840B8E493A331
:1001BA00FAE493A3F8E493A3C8C582C8CAC583CA5C
:1001CA00F0A3C8C582C8CAC583CADFE9DEE780BE14
:0100160000E9
:00000001FF
