:040836007F057E00BC
:10083A00EF1FAA0670011E4A600BE4FDEDC3940C7B
:05084A0050EE0D80F7E7
:01084F002286
:1007CE00C200C2AFD2947F0C7E0012083AC2947F50
:1007DE00507E0012083AD2947F0A7E0012083AA286
:0A07EE00949200120836D2AFA20068
:0107F80022DE
:0207F900A9074E
:1007FB00C2AFE4FBC294E9139294120836D294E987
:0C080B00C313F90BBB08ED120836D2AF86
:0108170022BE
:10081800C2AFE4FBC294ECC313FCD29430940343FC
:0D08280004801208360BBB08EBD2AFAF0402
:0108350022A0
:04085000021C000086
:070862007F0212066F80FE09
:03001B0002073E9B
:10073E00C0E0C0F0C083C082C0D075D000C000C081
:0D074E0001C002C003C004C005C006C00702
:10075B00051DE51D7002051CD394F3E51C940140A7
:0D076B0009751C00751D001203AB1206D8A5
:10077800D007D006D005D004D003D002D001D000D5
:0B078800D0D0D082D083D0F0D0E0327F
:1005F0001207CE7FCC1207F97F441207F97FC87E1D
:100600000012083A1207CE7FCC1207F97FBE1207FC
:10061000F91208188F161208188F17E517D3940AC5
:100620004022531707E517F510E516F511AC10AD8C
:1006300011E41201B3E4FBFA7980783D12001E1236
:10064000019D801AE517F510E516F511AC10AD11F6
:10065000E41201B3E4FBFA7980783D12001E8F1595
:0E0660008E148D138C12AF15AE14AD13AC12A8
:01066E002269
:1003AB001205F08F0B8E0A8D098C08E4FFFEFDFC05
:1003BB00AB0BAA0AA909A80812012450167531BF64
:1003CB00AF0BAE0AAD09AC0812019D8F0B8E0A8DD7
:1003DB00098C087F007E407D1C7C46AB0BAA0AA9CA
:1003EB0009A80812001E1201EC8F0F8E0E8D0D8CBA
:1003FB000C7B407A42790F78001202F88F317B40E8
:10040B007A42790F7800AF0FAE0EAD0DAC0C120225
:10041B00F8AC00AD01AE02AF037BA07A8679017810
:10042B00001202F88F327BA07A8679017800AF0F29
:10043B00AE0EAD0DAC0C1202F8AC00AD01AE02AFBE
:10044B0003E47B107A27F9F81202F88F3375341610
:10045B00E47B107A27F9F8AF0FAE0EAD0DAC0C1292
:10046B0002F8AC00AD01AE02AF03E47BE87A03F90E
:10047B00F81202F88F35E47BE87A03F9F8AF0FAE88
:10048B000EAD0DAC0C1202F8AC00AD01AE02AF0319
:10049B00E47B64FAF9F81202F88F36E47B64FAF91C
:1004AB00F8AF0FAE0EAD0DAC0C1202F8AC00AD01F7
:1004BB00AE02AF03E47B0AFAF9F81202F88F37E4C5
:1004CB007B0AFAF9F8AF0FAE0EAD0DAC0C1202F8B9
:0404DB00AF038F38A4
:0104DF0022FA
:10000300C0F9A4B0999282F880908883C6A1868EA5
:0800130089C7C88CC1BF7FFF43
:0D0854000831171717171717171701300075
:10079300E5A0541F44E0F5A07580FF53A01FE5A01A
:1007A300541F44C0F5A0EF14FFF87401088002C37E
:1007B30033D8FCF58053A01FE5A0541F44E0F5A0F7
:0B07C300ED90000393F58053A01F226F
:02056C008F21DD
:10056E00E4F527F526E47B0AFAF9F8AF25AE24ADBB
:10057E0023AC221202F8AF0374282526F8A607AF83
:10058E0025AE24AD23AC22E47B0AFAF9F81202F868
:10059E008F258E248D238C220526E526B408C6755C
:1005AE00260774282526F8E6701474312526F87669
:1005BE001705271526C3E5266480948050E4C3E50D
:1005CE002664809480401A74282526F8E6FFC374AA
:1005DE00069527C3952625212431F8A607152680D2
:0105EE00DD2F
:0105EF0022E9
:1006D8000530E53014B40800505B9006F075F0035F
:1006E800A4C58325F0C5837302070802070E020715
:1006F8001402071A02072002072602072C020733F2
:10070800AD317F018022AD327F02801CAD337F0383
:100718008016AD347F048010AD357F05800AAD3674
:100728007F068004AD377F07020793AD387F081234
:050738000793E4F53019
:01073D002299
:02066F00AB07D7
:10067100538EBF53890F751B40751A4275190F753B
:100681001800AF03E4FCFDFEAB1BAA1AA919A818B8
:1006910012026DE47BE87A03F9F81202F88F1B8EDF
:1006A1001A8D198C18C3E4951BF51BE4951AF51ADC
:1006B10074019519F519E49518F518AF1BAE1AAD2B
:1006C10019FC78081203988F8D851B8BC28FD28EEF
:0606D100D2ABD2AFC2BBA8
:0106D7002200
:10001E00EC4D6011E8497017ED33EC3304600DE4DC
:10002E00FCFFFEFD22E933E8330470F80202581299
:10003E00022358046009E4CC24815006285009029A
:10004E00026228400302025FC0E0EB4A7044B980AE
:10005E0006D0E0FB02024EEF4E701CBD8008EBFF97
:10006E00EAFEE9FD80EBE98DF0A4FEE5F002010762
:10007E00E9CDF9EAFEEBFFEF89F0A4FCE5F0CE89BD
:10008E00F0A42EFFE435F0CD89F0A42DFEE435F07A
:10009E008067EF4E7005BD80D780C3EF8BF0A4ACA8
:1000AE00F0EE8BF0A42CFCE435F0F8EF8AF0A42CE3
:1000BE00E5F038FCE433CB8DF0A42CFCE5F03BF8F6
:1000CE00EE8AF0A42CFCE5F038F8E433CF89F0A4E6
:1000DE002CFCE5F038CF3400CE89F0A42FFFE5F0EC
:1000EE003EFEE433C98DF0A42EFEE5F039CD8AF044
:1000FE00A42FFFE5F03EFEE43DFD33D0E0FB5007BC
:10010E000BBB000F020262EC2CFCEF33FFEE33FE52
:06011E00ED33FD02023A80
:1001240074F8CC6480CCC86480C8F58204604FC382
:10013400EB9FF5F0EA9E42F0E99D42F0E89C45F021
:10014400603C501DE5825FFFE582D313CB5BCBF4AB
:100154002B5582FB50280ABA002409B900200880D4
:100164001DE5825BFBE582D313CF5FCFF4C3132F6E
:100174005582FF50090EBE00050DBD00010CC3EBF6
:100184009FF5F0EA9E42F0E99D42F0E89C45F0605C
:0901940007CC4820E701B3EC227E
:10019D00ED33EC33600A047003BD8004ECB2E7FC70
:0101AD00222F
:1001AE0075F020800E75F010800575F0087D007ECC
:1001BE00007F003392D530D50312038AEC33401002
:1001CE00EF33FFEE33FEED33FDEC33FCD5F0ED22D5
:0E01DE00E5F0247EA2D513CC92E7CDCEFF2211
:1001EC00EDD2E7CD33EC3392D524814006E4FFFE0B
:1001FC00FDFC22FCE4CFCECDCC24E0501174FF806A
:10020C00EDC3CC13CCCD13CDCE13CECF13CF047006
:07021C00F030D5DE02038A79
:10022300E9D2E7C933E833F892D5EDD2E7CD33EC21
:0702330033FC5002B2D5229A
:10023A00EC30E7100FBF000C0EBE00080DBD000425
:10024A000BEB6014A2D5EB13FCED92E7FD2274FFD1
:10025A00FCFDFEFF22E480F8A2D574FF13FC7D802A
:03026A00E480EF3E
:030000000204E017
:0C04E000787FE4F6D8FD7581380205270E
:10026D00E88FF0A4CC8BF0A42CFCE98EF0A42CFC30
:10027D008AF0EDA42CFCEA8EF0A4CDA8F08BF0A4AE
:10028D002DCC3825F0FDE98FF0A42CCD35F0FCEB0D
:10029D008EF0A4FEA9F0EB8FF0A4CFC5F02ECD39D2
:0F02AD00FEE43CFCEAA42DCE35F0FDE43CFC223F
:1002BC0075F008758200EF2FFFEE33FECD33CDCCF9
:1002CC0033CCC58233C5829BED9AEC99E58298407C
:1002DC000CF582EE9BFEED9AFDEC99FC0FD5F0D659
:1002EC00E4CEFBE4CDFAE4CCF9A88222B800C1B983
:1002FC000059BA002DEC8BF084CFCECDFCE5F0CBC1
:10030C00F97818EF2FFFEE33FEED33FDEC33FCEBF9
:10031C0033FB10D703994004EB99FB0FD8E5E4F9B4
:10032C00FA227818EF2FFFEE33FEED33FDEC33FCA1
:10033C00C933C910D7059BE99A4007EC9BFCE99A95
:10034C00F90FD8E0E4C9FAE4CCFB2275F010EF2FDA
:10035C00FFEE33FEED33FDCC33CCC833C810D707DA
:10036C009BEC9AE899400AED9BFDEC9AFCE899F815
:0E037C000FD5F0DAE4CDFBE4CCFAE4C8F922A8
:0E038A00C3E49FFFE49EFEE49DFDE49CFC2284
:10039800E8600FECC313FCED13FDEE13FEEF13FF43
:0303A800D8F12267
:1004EC00020862E493A3F8E493A34003F68001F2BC
:1004FC0008DFF48029E493A3F85407240CC8C33311
:10050C00C4540F4420C8834004F456800146F6DFDF
:10051C00E4800B0102040810204080900850E47E17
:10052C00019360BCA3FF543F30E509541FFEE493D4
:10053C00A360010ECF54C025E060A840B8E493A39B
:10054C00FAE493A3F8E493A3C8C582C8CAC583CAC6
:10055C00F0A3C8C582C8CAC583CADFE9DEE780BE7E
:010861000096
:00000001FF
