:0F056F001203E27F021202D87F331204ED80F9EB
:03001B0002059942
:01059900322F
:1004CD000417FFFFFFFF041B01010101041F0101C0
:0204DD0001011B
:10050D00EF14600E14600F1460102403700FE4F5E7
:0E051D0035227535012275350222753503220F
:10025E00E51725E0FFA2B3E4334FF517E51825E0C7
:10026E00FFA2B2E4334FF518E51925E0FFA2B1E481
:10027E00334FF519E51A25E0FFA2B0E4334FF51A16
:10028E00E4FE74172EF8E6FFB4FF08741F2EF876FE
:10029E00018009EF7006741F2EF8E4F60EBE04E21C
:1002AE00E4FE741B2EF8E6FF741F2EF8E6FD6F6059
:1002BE0014ED7005AF0612050D741F2EF8E6FF74CF
:0902CE001B2EF8A6070EBE04D990
:0102D7002204
:04052B00D2A07F05D6
:10052F00000000000000000000000000000000AE0E
:06053F00071FEE70EB2225
:0F057E00D2A112052BC2A17F0512052FC2A02208
:0C058D00C2A112052BD2A17F0502052F90
:02045100AD07F5
:10045300C2AFE4FCC2A07F0512052FED30E704D242
:10046300A18002C2A17F0512052FD2A0ED25E0FDD8
:0D0473007F0512052F0CBC08DBC2A0D2AF24
:010480002259
:1004AC00C2AFE4FC12052BED25E0FD30A1034305A2
:1004BC0001C2A07F0512052F0CBC08E8D2AFAF0516
:0104CC00220D
:10055D0012052BA2A1E433FDC2A07F0512052FAF1A
:01056D000588
:01056E00226A
:10000300C2A0EF24FF92A17F0512052F12052BC278
:08001300A0D2A17F0502052F18
:10054500C0F9A4B0999282F880908883C6A1868E5E
:0805550089C7C88CC1BF7FFFFC
:0D04DF000824171717171717171701230008
:1003A700E5A0541F44E0F5A07580FF53A01FE5A00A
:1003B700541F44C0F5A0EF14FFF87401088002C36E
:1003C70033D8FCF58053A01FE5A0541F44E0F5A0E7
:0B03D700ED90054593F58053A01F2218
:0201DA008F088C
:1001DC00E4F50EF50DE47B0AFAF9F8AF0CAE0BADB5
:1001EC000AAC091200A9AF03740F250DF8A607AFCE
:1001FC000CAE0BAD0AAC09E47B0AFAF9F81200A9B3
:10020C008F0C8E0B8D0A8C09050DE50DB408C67587
:10021C000D07740F250DF8E670147424250DF8766F
:10022C0017050E150DC3E50D6480948050E4C3E5ED
:10023C000D64809480401A740F250DF8E6FFC3748A
:10024C0006950EC3950D25082424F8A607150D80D8
:01025C00DDC4
:01025D00227E
:100341000523E52314B40800505B90035975F003AD
:10035100A4C58325F0C583730203710203770203E9
:100361007D02038302038902038F02039502039C2A
:10037100AD247F018022AD257F02801CAD267F0345
:100381008016AD277F048010AD287F05800AAD2936
:100391007F068004AD2A7F070203A7AD2B7F0812D9
:0503A10003A7E4F523B1
:0103A6002234
:020481008F33B7
:1004830012057E7F9012045112055DAF33120451A1
:1004930012055D12057E7F9112045112055D12044F
:0804A300AC8F3412058DAF345B
:0104AB00222E
:1004ED008F2C12057E7F9012045112055D7F4012F4
:1004FD00045112055DAF2C12045112055D02058DDC
:04041C008F308D315F
:1004200012057E7F9012045112055DAF3012045107
:1004300012055DAF3112045112055D12057E7F91E8
:1004400012045112055D1204AC8F3212058DAF32C9
:010450002289
:1003E200E5A0541F4480F5A07580FF53A01FE5A02F
:1003F200541F44A0F5A0C286C28453A01FE5A05496
:100402001F44C0F5A07580FF53A01FE5A0541F44F0
:0A041200E0F5A07580FF53A01F2243
:0202D800AB0772
:1002DA00538EBF53890F752F40752E42752D0F759A
:1002EA002C00AF03E4FCFDFEAB2FAA2EA92DA82CEF
:1002FA0012001EE47BE87A03F9F81200A98F2F8E08
:10030A002E8D2D8C2CC3E4952FF52FE4952EF52EEA
:10031A007401952DF52DE4952CF52CAF2FAE2EAD4D
:10032A002DFC780812013B8F8D852F8BC28FD28EC0
:06033A00D2ABD2AFC2BB42
:01034000229A
:0300000002014EAC
:0C014E00787FE4F6D8FD7581350201953C
:10001E00E88FF0A4CC8BF0A42CFCE98EF0A42CFC81
:10002E008AF0EDA42CFCEA8EF0A4CDA8F08BF0A4FF
:10003E002DCC3825F0FDE98FF0A42CCD35F0FCEB5E
:10004E008EF0A4FEA9F0EB8FF0A4CFC5F02ECD3923
:0F005E00FEE43CFCEAA42DCE35F0FDE43CFC2290
:10006D0075F008758200EF2FFFEE33FECD33CDCC4A
:10007D0033CCC58233C5829BED9AEC99E5829840CD
:10008D000CF582EE9BFEED9AFDEC99FC0FD5F0D6AA
:10009D00E4CEFBE4CDFAE4CCF9A88222B800C1B9D4
:1000AD000059BA002DEC8BF084CFCECDFCE5F0CB12
:1000BD00F97818EF2FFFEE33FEED33FDEC33FCEB4B
:1000CD0033FB10D703994004EB99FB0FD8E5E4F906
:1000DD00FA227818EF2FFFEE33FEED33FDEC33FCF3
:1000ED00C933C910D7059BE99A4007EC9BFCE99AE7
:1000FD00F90FD8E0E4C9FAE4CCFB2275F010EF2F2C
:10010D00FFEE33FEED33FDCC33CCC833C810D7072B
:10011D009BEC9AE899400AED9BFDEC9AFCE899F866
:0E012D000FD5F0DAE4CDFBE4CCFAE4C8F922F9
:10013B00E8600FECC313FCED13FDEE13FEEF13FFA2
:03014B00D8F122C6
:10015A0002056FE493A3F8E493A34003F68001F247
:10016A0008DFF48029E493A3F85407240CC8C333A6
:10017A00C4540F4420C8834004F456800146F6DF75
:10018A00E4800B01020408102040809004CDE47E34
:10019A00019360BCA3FF543F30E509541FFEE4936A
:1001AA00A360010ECF54C025E060A840B8E493A331
:1001BA00FAE493A3F8E493A3C8C582C8CAC583CA5C
:1001CA00F0A3C8C582C8CAC583CADFE9DEE780BE14
:0104EC00000F
:00000001FF
