:100470001052070B0F13060A0E1205090D1104087E
:100480000C100121001022FFFFFFFFFFFFFFFFFF05
:10049000FFFFFFFFFFFFFF1032010101010101011A
:1004A00001010101010101010110420101010101EC
:0B04B000010101010101010101010136
:10001E00E52114601014601314601624037016C2C8
:10002E00B0D2B38010C2B1D2B0800AC2B2D2B18007
:10003E0004C2B3D2B2E52125E025E02422F8E6255C
:10004E00E0FFA2C4E4334FFFE52125E025E02422A2
:10005E00F8A607E52125E025E02423F8E625E0FFB4
:10006E00A2C2E4334FFFE52125E025E02423F8A6C4
:10007E0007E52125E025E02424F8E625E0FFA2B5DA
:10008E00E4334FFFE52125E025E02424F8A607E51B
:10009E002125E025E02425F8E625E0FFA2B4E4338F
:1000AE004FFFE52125E025E02425F8A607E4F50815
:1000BE00E52125E025E024222508F8E6FFB4FF0F10
:1000CE00E52125E025E024422508F876018010EF91
:1000DE00700DE52125E025E024422508F8E4F6051B
:1000EE0008E508B404CAE4F508E52125E025E02476
:1000FE00322508F8E6FFE52125E025E02442250813
:10010E00F8E6FE6F6038EE701BE52125E025E02451
:10011E00522508F8E6FFE48F0DF50CF50BF50A7F76
:10012E000112031DE52125E025E024422508F8E60D
:10013E00FFE52125E025E024322508F8A60705086D
:10014E00E508C3940440A2E521B40304E4F521229A
:02015E00052179
:01016000227C
:1005D300E5A0541F44A0F5A0D286C28453A01F22D5
:1005E300E5A0541F44A0F5A0D284C28653A01F22C5
:0604BB00C100021C00015B
:0E05F300E5A0541F4480F5A08F8053A01F2266
:10051F00E5A0541F4480F5A0E51DF4F580200017D9
:10052F00E51D25E0F51DE51C33F51CE51D64804533
:10053F001C7018D2008014E51CA2E713F51CE51DF2
:0E054F0013F51D6401451C7002C20053A01F6D
:01055D00227B
:0304C100011E0019
:0A0601001205997F011203A180FE8B
:03001B000204D20A
:1004D200C0E0C0F0C083C082C0D075D000C000C0F0
:0D04E20001C002C003C004C005C006C00771
:1004EF00051EE51ED394F94006751E0012051F1256
:0504FF00001E12040ABA
:10050400D007D006D005D004D003D002D001D0004B
:0B051400D0D0D082D083D0F0D0E032F5
:10059900E5A0541F4480F5A07580FF53A01FE5A076
:1005A900541F44A0F5A0C286C28453A01FE5A054DD
:1005B9001F44C0F5A07580FF53A01FE5A0541F4438
:0A05C900E0F5A07580FF53A01F228B
:10000300C0F9A4B0999282F880908883C6A1868EA5
:0800130089C7C88CC1BF7FFF43
:0D04C40008631717171717171717016200A5
:10055E00E5A0541F44E0F5A07580FF53A01FE5A051
:10056E00541F44C0F5A0EF14FFF87401088002C3B5
:10057E0033D8FCF58053A01FE5A0541F44E0F5A02E
:0B058E00ED90000393F58053A01F22A6
:02031D008F0946
:10031F00E4F50FF50EE47B0AFAF9F8AF0DAE0CAD6C
:10032F000BAC0A1201ECAF037410250EF8A607AF41
:10033F000DAE0CAD0BAC0AE47B0AFAF9F81201EC26
:10034F008F0D8E0C8D0B8C0A050EE50EB408C6753D
:10035F000E077410250EF8E670147463250EF876E8
:10036F0017050F150EC3E50E6480948050E4C3E5A6
:10037F000E64809480401A7410250EF8E6FFC37443
:10038F0006950FC3950E25092463F8A607150E8051
:01039F00DD80
:0103A000223A
:10040A000562E56214B40800505B90042275F0039B
:10041A00A4C58325F0C5837302043A02044002048A
:10042A004602044C02045202045802045E020465A5
:10043A00AD637F018022AD647F02801CAD657F03BE
:10044A008016AD667F048010AD677F05800AAD68AF
:10045A007F068004AD697F0702055EAD6A7F0812D8
:05046A00055EE4F562EF
:01046F00226A
:0203A100AB07A8
:1003A300538EBF53890F751B40751A4275190F750C
:1003B3001800AF03E4FCFDFEAB1BAA1AA919A81889
:1003C300120161E47BE87A03F9F81201EC8F1B8ECA
:1003D3001A8D198C18C3E4951BF51BE4951AF51AAD
:1003E30074019519F519E49518F518AF1BAE1AADFC
:1003F30019FC780812027E8F8D851B8BC28FD28EDB
:06040300D2ABD2AFC2BB78
:0104090022D0
:0300000002029168
:0C029100787FE4F6D8FD75816A0202D87F
:10016100E88FF0A4CC8BF0A42CFCE98EF0A42CFC3D
:100171008AF0EDA42CFCEA8EF0A4CDA8F08BF0A4BB
:100181002DCC3825F0FDE98FF0A42CCD35F0FCEB1A
:100191008EF0A4FEA9F0EB8FF0A4CFC5F02ECD39DF
:0F01A100FEE43CFCEAA42DCE35F0FDE43CFC224C
:1001B00075F008758200EF2FFFEE33FECD33CDCC06
:1001C00033CCC58233C5829BED9AEC99E582984089
:1001D0000CF582EE9BFEED9AFDEC99FC0FD5F0D666
:1001E000E4CEFBE4CDFAE4CCF9A88222B800C1B990
:1001F0000059BA002DEC8BF084CFCECDFCE5F0CBCE
:10020000F97818EF2FFFEE33FEED33FDEC33FCEB06
:1002100033FB10D703994004EB99FB0FD8E5E4F9C1
:10022000FA227818EF2FFFEE33FEED33FDEC33FCAE
:10023000C933C910D7059BE99A4007EC9BFCE99AA2
:10024000F90FD8E0E4C9FAE4CCFB2275F010EF2FE7
:10025000FFEE33FEED33FDCC33CCC833C810D707E7
:100260009BEC9AE899400AED9BFDEC9AFCE899F822
:0E0270000FD5F0DAE4CDFBE4CCFAE4C8F922B5
:10027E00E8600FECC313FCED13FDEE13FEEF13FF5E
:03028E00D8F12282
:10029D00020601E493A3F8E493A34003F68001F270
:1002AD0008DFF48029E493A3F85407240CC8C33362
:1002BD00C4540F4420C8834004F456800146F6DF31
:1002CD00E4800B0102040810204080900470E47E4D
:1002DD00019360BCA3FF543F30E509541FFEE49326
:1002ED00A360010ECF54C025E060A840B8E493A3ED
:1002FD00FAE493A3F8E493A3C8C582C8CAC583CA18
:10030D00F0A3C8C582C8CAC583CADFE9DEE780BECF
:0104D100002A
:00000001FF
